{
  "contractName": "MyToken",
  "abi": [
    {
      "inputs": [],
      "stateMutability": "nonpayable",
      "type": "constructor"
    },
    {
      "anonymous": false,
      "inputs": [
        {
          "indexed": true,
          "internalType": "address",
          "name": "owner",
          "type": "address"
        },
        {
          "indexed": true,
          "internalType": "address",
          "name": "approved",
          "type": "address"
        },
        {
          "indexed": true,
          "internalType": "uint256",
          "name": "tokenId",
          "type": "uint256"
        }
      ],
      "name": "Approval",
      "type": "event"
    },
    {
      "anonymous": false,
      "inputs": [
        {
          "indexed": true,
          "internalType": "address",
          "name": "owner",
          "type": "address"
        },
        {
          "indexed": true,
          "internalType": "address",
          "name": "operator",
          "type": "address"
        },
        {
          "indexed": false,
          "internalType": "bool",
          "name": "approved",
          "type": "bool"
        }
      ],
      "name": "ApprovalForAll",
      "type": "event"
    },
    {
      "anonymous": false,
      "inputs": [
        {
          "indexed": true,
          "internalType": "address",
          "name": "previousOwner",
          "type": "address"
        },
        {
          "indexed": true,
          "internalType": "address",
          "name": "newOwner",
          "type": "address"
        }
      ],
      "name": "OwnershipTransferred",
      "type": "event"
    },
    {
      "anonymous": false,
      "inputs": [
        {
          "indexed": false,
          "internalType": "address",
          "name": "account",
          "type": "address"
        }
      ],
      "name": "Paused",
      "type": "event"
    },
    {
      "anonymous": false,
      "inputs": [
        {
          "indexed": true,
          "internalType": "address",
          "name": "from",
          "type": "address"
        },
        {
          "indexed": true,
          "internalType": "address",
          "name": "to",
          "type": "address"
        },
        {
          "indexed": true,
          "internalType": "uint256",
          "name": "tokenId",
          "type": "uint256"
        }
      ],
      "name": "Transfer",
      "type": "event"
    },
    {
      "anonymous": false,
      "inputs": [
        {
          "indexed": false,
          "internalType": "address",
          "name": "account",
          "type": "address"
        }
      ],
      "name": "Unpaused",
      "type": "event"
    },
    {
      "inputs": [
        {
          "internalType": "address",
          "name": "to",
          "type": "address"
        },
        {
          "internalType": "uint256",
          "name": "tokenId",
          "type": "uint256"
        }
      ],
      "name": "approve",
      "outputs": [],
      "stateMutability": "nonpayable",
      "type": "function"
    },
    {
      "inputs": [
        {
          "internalType": "address",
          "name": "owner",
          "type": "address"
        }
      ],
      "name": "balanceOf",
      "outputs": [
        {
          "internalType": "uint256",
          "name": "",
          "type": "uint256"
        }
      ],
      "stateMutability": "view",
      "type": "function"
    },
    {
      "inputs": [
        {
          "internalType": "uint256",
          "name": "tokenId",
          "type": "uint256"
        }
      ],
      "name": "burn",
      "outputs": [],
      "stateMutability": "nonpayable",
      "type": "function"
    },
    {
      "inputs": [
        {
          "internalType": "uint256",
          "name": "tokenId",
          "type": "uint256"
        }
      ],
      "name": "getApproved",
      "outputs": [
        {
          "internalType": "address",
          "name": "",
          "type": "address"
        }
      ],
      "stateMutability": "view",
      "type": "function"
    },
    {
      "inputs": [
        {
          "internalType": "address",
          "name": "owner",
          "type": "address"
        },
        {
          "internalType": "address",
          "name": "operator",
          "type": "address"
        }
      ],
      "name": "isApprovedForAll",
      "outputs": [
        {
          "internalType": "bool",
          "name": "",
          "type": "bool"
        }
      ],
      "stateMutability": "view",
      "type": "function"
    },
    {
      "inputs": [],
      "name": "name",
      "outputs": [
        {
          "internalType": "string",
          "name": "",
          "type": "string"
        }
      ],
      "stateMutability": "view",
      "type": "function"
    },
    {
      "inputs": [],
      "name": "owner",
      "outputs": [
        {
          "internalType": "address",
          "name": "",
          "type": "address"
        }
      ],
      "stateMutability": "view",
      "type": "function"
    },
    {
      "inputs": [
        {
          "internalType": "uint256",
          "name": "tokenId",
          "type": "uint256"
        }
      ],
      "name": "ownerOf",
      "outputs": [
        {
          "internalType": "address",
          "name": "",
          "type": "address"
        }
      ],
      "stateMutability": "view",
      "type": "function"
    },
    {
      "inputs": [],
      "name": "paused",
      "outputs": [
        {
          "internalType": "bool",
          "name": "",
          "type": "bool"
        }
      ],
      "stateMutability": "view",
      "type": "function"
    },
    {
      "inputs": [],
      "name": "renounceOwnership",
      "outputs": [],
      "stateMutability": "nonpayable",
      "type": "function"
    },
    {
      "inputs": [
        {
          "internalType": "address",
          "name": "from",
          "type": "address"
        },
        {
          "internalType": "address",
          "name": "to",
          "type": "address"
        },
        {
          "internalType": "uint256",
          "name": "tokenId",
          "type": "uint256"
        }
      ],
      "name": "safeTransferFrom",
      "outputs": [],
      "stateMutability": "nonpayable",
      "type": "function"
    },
    {
      "inputs": [
        {
          "internalType": "address",
          "name": "from",
          "type": "address"
        },
        {
          "internalType": "address",
          "name": "to",
          "type": "address"
        },
        {
          "internalType": "uint256",
          "name": "tokenId",
          "type": "uint256"
        },
        {
          "internalType": "bytes",
          "name": "_data",
          "type": "bytes"
        }
      ],
      "name": "safeTransferFrom",
      "outputs": [],
      "stateMutability": "nonpayable",
      "type": "function"
    },
    {
      "inputs": [
        {
          "internalType": "address",
          "name": "operator",
          "type": "address"
        },
        {
          "internalType": "bool",
          "name": "approved",
          "type": "bool"
        }
      ],
      "name": "setApprovalForAll",
      "outputs": [],
      "stateMutability": "nonpayable",
      "type": "function"
    },
    {
      "inputs": [
        {
          "internalType": "bytes4",
          "name": "interfaceId",
          "type": "bytes4"
        }
      ],
      "name": "supportsInterface",
      "outputs": [
        {
          "internalType": "bool",
          "name": "",
          "type": "bool"
        }
      ],
      "stateMutability": "view",
      "type": "function"
    },
    {
      "inputs": [],
      "name": "symbol",
      "outputs": [
        {
          "internalType": "string",
          "name": "",
          "type": "string"
        }
      ],
      "stateMutability": "view",
      "type": "function"
    },
    {
      "inputs": [
        {
          "internalType": "uint256",
          "name": "tokenId",
          "type": "uint256"
        }
      ],
      "name": "tokenURI",
      "outputs": [
        {
          "internalType": "string",
          "name": "",
          "type": "string"
        }
      ],
      "stateMutability": "view",
      "type": "function"
    },
    {
      "inputs": [
        {
          "internalType": "address",
          "name": "from",
          "type": "address"
        },
        {
          "internalType": "address",
          "name": "to",
          "type": "address"
        },
        {
          "internalType": "uint256",
          "name": "tokenId",
          "type": "uint256"
        }
      ],
      "name": "transferFrom",
      "outputs": [],
      "stateMutability": "nonpayable",
      "type": "function"
    },
    {
      "inputs": [
        {
          "internalType": "address",
          "name": "newOwner",
          "type": "address"
        }
      ],
      "name": "transferOwnership",
      "outputs": [],
      "stateMutability": "nonpayable",
      "type": "function"
    },
    {
      "inputs": [],
      "name": "pause",
      "outputs": [],
      "stateMutability": "nonpayable",
      "type": "function"
    },
    {
      "inputs": [],
      "name": "unpause",
      "outputs": [],
      "stateMutability": "nonpayable",
      "type": "function"
    },
    {
      "inputs": [
        {
          "internalType": "address",
          "name": "to",
          "type": "address"
        }
      ],
      "name": "safeMint",
      "outputs": [],
      "stateMutability": "nonpayable",
      "type": "function"
    }
  ],
  "bytecode": "0x60806040523480156200001157600080fd5b506040518060400160405280600781526020017f4d79546f6b656e000000000000000000000000000000000000000000000000008152506040518060400160405280600381526020017f4d544b0000000000000000000000000000000000000000000000000000000000815250816000908051906020019062000096929190620001c1565b508060019080519060200190620000af929190620001c1565b5050506000600660006101000a81548160ff021916908315150217905550620000ed620000e1620000f360201b60201c565b620000fb60201b60201c565b620002d5565b600033905090565b6000600660019054906101000a900473ffffffffffffffffffffffffffffffffffffffff16905081600660016101000a81548173ffffffffffffffffffffffffffffffffffffffff021916908373ffffffffffffffffffffffffffffffffffffffff1602179055508173ffffffffffffffffffffffffffffffffffffffff168173ffffffffffffffffffffffffffffffffffffffff167f8be0079c531659141344cd1fd0a4f28419497f9722a3daafe3b4186f6b6457e060405160405180910390a35050565b828054620001cf90620002a0565b90600052602060002090601f016020900481019282620001f357600085556200023f565b82601f106200020e57805160ff19168380011785556200023f565b828001600101855582156200023f579182015b828111156200023e57825182559160200191906001019062000221565b5b5090506200024e919062000252565b5090565b5b808211156200026d57600081600090555060010162000253565b5090565b7f4e487b7100000000000000000000000000000000000000000000000000000000600052602260045260246000fd5b60006002820490506001821680620002b957607f821691505b602082108103620002cf57620002ce62000271565b5b50919050565b6131ec80620002e56000396000f3fe608060405234801561001057600080fd5b50600436106101375760003560e01c80636352211e116100b857806395d89b411161007c57806395d89b4114610300578063a22cb4651461031e578063b88d4fde1461033a578063c87b56dd14610356578063e985e9c514610386578063f2fde38b146103b657610137565b80636352211e1461026e57806370a082311461029e578063715018a6146102ce5780638456cb59146102d85780638da5cb5b146102e257610137565b80633f4ba83a116100ff5780633f4ba83a146101f257806340d097c3146101fc57806342842e0e1461021857806342966c68146102345780635c975abb1461025057610137565b806301ffc9a71461013c57806306fdde031461016c578063081812fc1461018a578063095ea7b3146101ba57806323b872dd146101d6575b600080fd5b61015660048036038101906101519190611f09565b6103d2565b6040516101639190611f51565b60405180910390f35b6101746104b4565b6040516101819190612005565b60405180910390f35b6101a4600480360381019061019f919061205d565b610546565b6040516101b191906120cb565b60405180910390f35b6101d460048036038101906101cf9190612112565b6105cb565b005b6101f060048036038101906101eb9190612152565b6106e2565b005b6101fa610742565b005b610216600480360381019061021191906121a5565b6107c8565b005b610232600480360381019061022d9190612152565b61086a565b005b61024e6004803603810190610249919061205d565b61088a565b005b6102586108e6565b6040516102659190611f51565b60405180910390f35b6102886004803603810190610283919061205d565b6108fd565b60405161029591906120cb565b60405180910390f35b6102b860048036038101906102b391906121a5565b6109ae565b6040516102c591906121e1565b60405180910390f35b6102d6610a65565b005b6102e0610aed565b005b6102ea610b73565b6040516102f791906120cb565b60405180910390f35b610308610b9d565b6040516103159190612005565b60405180910390f35b61033860048036038101906103339190612228565b610c2f565b005b610354600480360381019061034f919061239d565b610c45565b005b610370600480360381019061036b919061205d565b610ca7565b60405161037d9190612005565b60405180910390f35b6103a0600480360381019061039b9190612420565b610d4e565b6040516103ad9190611f51565b60405180910390f35b6103d060048036038101906103cb91906121a5565b610de2565b005b60007f80ac58cd000000000000000000000000000000000000000000000000000000007bffffffffffffffffffffffffffffffffffffffffffffffffffffffff1916827bffffffffffffffffffffffffffffffffffffffffffffffffffffffff1916148061049d57507f5b5e139f000000000000000000000000000000000000000000000000000000007bffffffffffffffffffffffffffffffffffffffffffffffffffffffff1916827bffffffffffffffffffffffffffffffffffffffffffffffffffffffff1916145b806104ad57506104ac82610ed9565b5b9050919050565b6060600080546104c39061248f565b80601f01602080910402602001604051908101604052809291908181526020018280546104ef9061248f565b801561053c5780601f106105115761010080835404028352916020019161053c565b820191906000526020600020905b81548152906001019060200180831161051f57829003601f168201915b5050505050905090565b600061055182610f43565b610590576040517f08c379a000000000000000000000000000000000000000000000000000000000815260040161058790612532565b60405180910390fd5b6004600083815260200190815260200160002060009054906101000a900473ffffffffffffffffffffffffffffffffffffffff169050919050565b60006105d6826108fd565b90508073ffffffffffffffffffffffffffffffffffffffff168373ffffffffffffffffffffffffffffffffffffffff1603610646576040517f08c379a000000000000000000000000000000000000000000000000000000000815260040161063d906125c4565b60405180910390fd5b8073ffffffffffffffffffffffffffffffffffffffff16610665610faf565b73ffffffffffffffffffffffffffffffffffffffff16148061069457506106938161068e610faf565b610d4e565b5b6106d3576040517f08c379a00000000000000000000000000000000000000000000000000000000081526004016106ca90612656565b60405180910390fd5b6106dd8383610fb7565b505050565b6106f36106ed610faf565b82611070565b610732576040517f08c379a0000000000000000000000000000000000000000000000000000000008152600401610729906126e8565b60405180910390fd5b61073d83838361114e565b505050565b61074a610faf565b73ffffffffffffffffffffffffffffffffffffffff16610768610b73565b73ffffffffffffffffffffffffffffffffffffffff16146107be576040517f08c379a00000000000000000000000000000000000000000000000000000000081526004016107b590612754565b60405180910390fd5b6107c66113b4565b565b6107d0610faf565b73ffffffffffffffffffffffffffffffffffffffff166107ee610b73565b73ffffffffffffffffffffffffffffffffffffffff1614610844576040517f08c379a000000000000000000000000000000000000000000000000000000000815260040161083b90612754565b60405180910390fd5b60006108506007611456565b905061085c6007611464565b610866828261147a565b5050565b61088583838360405180602001604052806000815250610c45565b505050565b61089b610895610faf565b82611070565b6108da576040517f08c379a00000000000000000000000000000000000000000000000000000000081526004016108d1906127e6565b60405180910390fd5b6108e381611498565b50565b6000600660009054906101000a900460ff16905090565b6000806002600084815260200190815260200160002060009054906101000a900473ffffffffffffffffffffffffffffffffffffffff169050600073ffffffffffffffffffffffffffffffffffffffff168173ffffffffffffffffffffffffffffffffffffffff16036109a5576040517f08c379a000000000000000000000000000000000000000000000000000000000815260040161099c90612878565b60405180910390fd5b80915050919050565b60008073ffffffffffffffffffffffffffffffffffffffff168273ffffffffffffffffffffffffffffffffffffffff1603610a1e576040517f08c379a0000000000000000000000000000000000000000000000000000000008152600401610a159061290a565b60405180910390fd5b600360008373ffffffffffffffffffffffffffffffffffffffff1673ffffffffffffffffffffffffffffffffffffffff168152602001908152602001600020549050919050565b610a6d610faf565b73ffffffffffffffffffffffffffffffffffffffff16610a8b610b73565b73ffffffffffffffffffffffffffffffffffffffff1614610ae1576040517f08c379a0000000000000000000000000000000000000000000000000000000008152600401610ad890612754565b60405180910390fd5b610aeb60006115b5565b565b610af5610faf565b73ffffffffffffffffffffffffffffffffffffffff16610b13610b73565b73ffffffffffffffffffffffffffffffffffffffff1614610b69576040517f08c379a0000000000000000000000000000000000000000000000000000000008152600401610b6090612754565b60405180910390fd5b610b7161167b565b565b6000600660019054906101000a900473ffffffffffffffffffffffffffffffffffffffff16905090565b606060018054610bac9061248f565b80601f0160208091040260200160405190810160405280929190818152602001828054610bd89061248f565b8015610c255780601f10610bfa57610100808354040283529160200191610c25565b820191906000526020600020905b815481529060010190602001808311610c0857829003601f168201915b5050505050905090565b610c41610c3a610faf565b838361171e565b5050565b610c56610c50610faf565b83611070565b610c95576040517f08c379a0000000000000000000000000000000000000000000000000000000008152600401610c8c906126e8565b60405180910390fd5b610ca18484848461188a565b50505050565b6060610cb282610f43565b610cf1576040517f08c379a0000000000000000000000000000000000000000000000000000000008152600401610ce89061299c565b60405180910390fd5b6000610cfb6118e6565b90506000815111610d1b5760405180602001604052806000815250610d46565b80610d25846118fd565b604051602001610d369291906129f8565b6040516020818303038152906040525b915050919050565b6000600560008473ffffffffffffffffffffffffffffffffffffffff1673ffffffffffffffffffffffffffffffffffffffff16815260200190815260200160002060008373ffffffffffffffffffffffffffffffffffffffff1673ffffffffffffffffffffffffffffffffffffffff16815260200190815260200160002060009054906101000a900460ff16905092915050565b610dea610faf565b73ffffffffffffffffffffffffffffffffffffffff16610e08610b73565b73ffffffffffffffffffffffffffffffffffffffff1614610e5e576040517f08c379a0000000000000000000000000000000000000000000000000000000008152600401610e5590612754565b60405180910390fd5b600073ffffffffffffffffffffffffffffffffffffffff168173ffffffffffffffffffffffffffffffffffffffff1603610ecd576040517f08c379a0000000000000000000000000000000000000000000000000000000008152600401610ec490612a8e565b60405180910390fd5b610ed6816115b5565b50565b60007f01ffc9a7000000000000000000000000000000000000000000000000000000007bffffffffffffffffffffffffffffffffffffffffffffffffffffffff1916827bffffffffffffffffffffffffffffffffffffffffffffffffffffffff1916149050919050565b60008073ffffffffffffffffffffffffffffffffffffffff166002600084815260200190815260200160002060009054906101000a900473ffffffffffffffffffffffffffffffffffffffff1673ffffffffffffffffffffffffffffffffffffffff1614159050919050565b600033905090565b816004600083815260200190815260200160002060006101000a81548173ffffffffffffffffffffffffffffffffffffffff021916908373ffffffffffffffffffffffffffffffffffffffff160217905550808273ffffffffffffffffffffffffffffffffffffffff1661102a836108fd565b73ffffffffffffffffffffffffffffffffffffffff167f8c5be1e5ebec7d5bd14f71427d1e84f3dd0314c0f7b2291e5b200ac8c7c3b92560405160405180910390a45050565b600061107b82610f43565b6110ba576040517f08c379a00000000000000000000000000000000000000000000000000000000081526004016110b190612b20565b60405180910390fd5b60006110c5836108fd565b90508073ffffffffffffffffffffffffffffffffffffffff168473ffffffffffffffffffffffffffffffffffffffff16148061113457508373ffffffffffffffffffffffffffffffffffffffff1661111c84610546565b73ffffffffffffffffffffffffffffffffffffffff16145b8061114557506111448185610d4e565b5b91505092915050565b8273ffffffffffffffffffffffffffffffffffffffff1661116e826108fd565b73ffffffffffffffffffffffffffffffffffffffff16146111c4576040517f08c379a00000000000000000000000000000000000000000000000000000000081526004016111bb90612bb2565b60405180910390fd5b600073ffffffffffffffffffffffffffffffffffffffff168273ffffffffffffffffffffffffffffffffffffffff1603611233576040517f08c379a000000000000000000000000000000000000000000000000000000000815260040161122a90612c44565b60405180910390fd5b61123e838383611a5d565b611249600082610fb7565b6001600360008573ffffffffffffffffffffffffffffffffffffffff1673ffffffffffffffffffffffffffffffffffffffff16815260200190815260200160002060008282546112999190612c93565b925050819055506001600360008473ffffffffffffffffffffffffffffffffffffffff1673ffffffffffffffffffffffffffffffffffffffff16815260200190815260200160002060008282546112f09190612cc7565b92505081905550816002600083815260200190815260200160002060006101000a81548173ffffffffffffffffffffffffffffffffffffffff021916908373ffffffffffffffffffffffffffffffffffffffff160217905550808273ffffffffffffffffffffffffffffffffffffffff168473ffffffffffffffffffffffffffffffffffffffff167fddf252ad1be2c89b69c2b068fc378daa952ba7f163c4a11628f55a4df523b3ef60405160405180910390a46113af838383611ab5565b505050565b6113bc6108e6565b6113fb576040517f08c379a00000000000000000000000000000000000000000000000000000000081526004016113f290612d69565b60405180910390fd5b6000600660006101000a81548160ff0219169083151502179055507f5db9ee0a495bf2e6ff9c91a7834c1ba4fdd244a5e8aa4e537bd38aeae4b073aa61143f610faf565b60405161144c91906120cb565b60405180910390a1565b600081600001549050919050565b6001816000016000828254019250508190555050565b611494828260405180602001604052806000815250611aba565b5050565b60006114a3826108fd565b90506114b181600084611a5d565b6114bc600083610fb7565b6001600360008373ffffffffffffffffffffffffffffffffffffffff1673ffffffffffffffffffffffffffffffffffffffff168152602001908152602001600020600082825461150c9190612c93565b925050819055506002600083815260200190815260200160002060006101000a81549073ffffffffffffffffffffffffffffffffffffffff021916905581600073ffffffffffffffffffffffffffffffffffffffff168273ffffffffffffffffffffffffffffffffffffffff167fddf252ad1be2c89b69c2b068fc378daa952ba7f163c4a11628f55a4df523b3ef60405160405180910390a46115b181600084611ab5565b5050565b6000600660019054906101000a900473ffffffffffffffffffffffffffffffffffffffff16905081600660016101000a81548173ffffffffffffffffffffffffffffffffffffffff021916908373ffffffffffffffffffffffffffffffffffffffff1602179055508173ffffffffffffffffffffffffffffffffffffffff168173ffffffffffffffffffffffffffffffffffffffff167f8be0079c531659141344cd1fd0a4f28419497f9722a3daafe3b4186f6b6457e060405160405180910390a35050565b6116836108e6565b156116c3576040517f08c379a00000000000000000000000000000000000000000000000000000000081526004016116ba90612dd5565b60405180910390fd5b6001600660006101000a81548160ff0219169083151502179055507f62e78cea01bee320cd4e420270b5ea74000d11b0c9f74754ebdbfc544b05a258611707610faf565b60405161171491906120cb565b60405180910390a1565b8173ffffffffffffffffffffffffffffffffffffffff168373ffffffffffffffffffffffffffffffffffffffff160361178c576040517f08c379a000000000000000000000000000000000000000000000000000000000815260040161178390612e41565b60405180910390fd5b80600560008573ffffffffffffffffffffffffffffffffffffffff1673ffffffffffffffffffffffffffffffffffffffff16815260200190815260200160002060008473ffffffffffffffffffffffffffffffffffffffff1673ffffffffffffffffffffffffffffffffffffffff16815260200190815260200160002060006101000a81548160ff0219169083151502179055508173ffffffffffffffffffffffffffffffffffffffff168373ffffffffffffffffffffffffffffffffffffffff167f17307eab39ab6107e8899845ad3d59bd9653f200f220920489ca2b5937696c318360405161187d9190611f51565b60405180910390a3505050565b61189584848461114e565b6118a184848484611b15565b6118e0576040517f08c379a00000000000000000000000000000000000000000000000000000000081526004016118d790612ed3565b60405180910390fd5b50505050565b606060405180602001604052806000815250905090565b606060008203611944576040518060400160405280600181526020017f30000000000000000000000000000000000000000000000000000000000000008152509050611a58565b600082905060005b6000821461197657808061195f90612ef3565b915050600a8261196f9190612f6a565b915061194c565b60008167ffffffffffffffff81111561199257611991612272565b5b6040519080825280601f01601f1916602001820160405280156119c45781602001600182028036833780820191505090505b5090505b60008514611a51576001826119dd9190612c93565b9150600a856119ec9190612f9b565b60306119f89190612cc7565b60f81b818381518110611a0e57611a0d612fcc565b5b60200101907effffffffffffffffffffffffffffffffffffffffffffffffffffffffffffff1916908160001a905350600a85611a4a9190612f6a565b94506119c8565b8093505050505b919050565b611a656108e6565b15611aa5576040517f08c379a0000000000000000000000000000000000000000000000000000000008152600401611a9c90612dd5565b60405180910390fd5b611ab0838383611c9c565b505050565b505050565b611ac48383611ca1565b611ad16000848484611b15565b611b10576040517f08c379a0000000000000000000000000000000000000000000000000000000008152600401611b0790612ed3565b60405180910390fd5b505050565b6000611b368473ffffffffffffffffffffffffffffffffffffffff16611e7a565b15611c8f578373ffffffffffffffffffffffffffffffffffffffff1663150b7a02611b5f610faf565b8786866040518563ffffffff1660e01b8152600401611b819493929190613050565b6020604051808303816000875af1925050508015611bbd57506040513d601f19601f82011682018060405250810190611bba91906130b1565b60015b611c3f573d8060008114611bed576040519150601f19603f3d011682016040523d82523d6000602084013e611bf2565b606091505b506000815103611c37576040517f08c379a0000000000000000000000000000000000000000000000000000000008152600401611c2e90612ed3565b60405180910390fd5b805181602001fd5b63150b7a0260e01b7bffffffffffffffffffffffffffffffffffffffffffffffffffffffff1916817bffffffffffffffffffffffffffffffffffffffffffffffffffffffff191614915050611c94565b600190505b949350505050565b505050565b600073ffffffffffffffffffffffffffffffffffffffff168273ffffffffffffffffffffffffffffffffffffffff1603611d10576040517f08c379a0000000000000000000000000000000000000000000000000000000008152600401611d079061312a565b60405180910390fd5b611d1981610f43565b15611d59576040517f08c379a0000000000000000000000000000000000000000000000000000000008152600401611d5090613196565b60405180910390fd5b611d6560008383611a5d565b6001600360008473ffffffffffffffffffffffffffffffffffffffff1673ffffffffffffffffffffffffffffffffffffffff1681526020019081526020016000206000828254611db59190612cc7565b92505081905550816002600083815260200190815260200160002060006101000a81548173ffffffffffffffffffffffffffffffffffffffff021916908373ffffffffffffffffffffffffffffffffffffffff160217905550808273ffffffffffffffffffffffffffffffffffffffff16600073ffffffffffffffffffffffffffffffffffffffff167fddf252ad1be2c89b69c2b068fc378daa952ba7f163c4a11628f55a4df523b3ef60405160405180910390a4611e7660008383611ab5565b5050565b6000808273ffffffffffffffffffffffffffffffffffffffff163b119050919050565b6000604051905090565b600080fd5b600080fd5b60007fffffffff0000000000000000000000000000000000000000000000000000000082169050919050565b611ee681611eb1565b8114611ef157600080fd5b50565b600081359050611f0381611edd565b92915050565b600060208284031215611f1f57611f1e611ea7565b5b6000611f2d84828501611ef4565b91505092915050565b60008115159050919050565b611f4b81611f36565b82525050565b6000602082019050611f666000830184611f42565b92915050565b600081519050919050565b600082825260208201905092915050565b60005b83811015611fa6578082015181840152602081019050611f8b565b83811115611fb5576000848401525b50505050565b6000601f19601f8301169050919050565b6000611fd782611f6c565b611fe18185611f77565b9350611ff1818560208601611f88565b611ffa81611fbb565b840191505092915050565b6000602082019050818103600083015261201f8184611fcc565b905092915050565b6000819050919050565b61203a81612027565b811461204557600080fd5b50565b60008135905061205781612031565b92915050565b60006020828403121561207357612072611ea7565b5b600061208184828501612048565b91505092915050565b600073ffffffffffffffffffffffffffffffffffffffff82169050919050565b60006120b58261208a565b9050919050565b6120c5816120aa565b82525050565b60006020820190506120e060008301846120bc565b92915050565b6120ef816120aa565b81146120fa57600080fd5b50565b60008135905061210c816120e6565b92915050565b6000806040838503121561212957612128611ea7565b5b6000612137858286016120fd565b925050602061214885828601612048565b9150509250929050565b60008060006060848603121561216b5761216a611ea7565b5b6000612179868287016120fd565b935050602061218a868287016120fd565b925050604061219b86828701612048565b9150509250925092565b6000602082840312156121bb576121ba611ea7565b5b60006121c9848285016120fd565b91505092915050565b6121db81612027565b82525050565b60006020820190506121f660008301846121d2565b92915050565b61220581611f36565b811461221057600080fd5b50565b600081359050612222816121fc565b92915050565b6000806040838503121561223f5761223e611ea7565b5b600061224d858286016120fd565b925050602061225e85828601612213565b9150509250929050565b600080fd5b600080fd5b7f4e487b7100000000000000000000000000000000000000000000000000000000600052604160045260246000fd5b6122aa82611fbb565b810181811067ffffffffffffffff821117156122c9576122c8612272565b5b80604052505050565b60006122dc611e9d565b90506122e882826122a1565b919050565b600067ffffffffffffffff82111561230857612307612272565b5b61231182611fbb565b9050602081019050919050565b82818337600083830152505050565b600061234061233b846122ed565b6122d2565b90508281526020810184848401111561235c5761235b61226d565b5b61236784828561231e565b509392505050565b600082601f83011261238457612383612268565b5b813561239484826020860161232d565b91505092915050565b600080600080608085870312156123b7576123b6611ea7565b5b60006123c5878288016120fd565b94505060206123d6878288016120fd565b93505060406123e787828801612048565b925050606085013567ffffffffffffffff81111561240857612407611eac565b5b6124148782880161236f565b91505092959194509250565b6000806040838503121561243757612436611ea7565b5b6000612445858286016120fd565b9250506020612456858286016120fd565b9150509250929050565b7f4e487b7100000000000000000000000000000000000000000000000000000000600052602260045260246000fd5b600060028204905060018216806124a757607f821691505b6020821081036124ba576124b9612460565b5b50919050565b7f4552433732313a20617070726f76656420717565727920666f72206e6f6e657860008201527f697374656e7420746f6b656e0000000000000000000000000000000000000000602082015250565b600061251c602c83611f77565b9150612527826124c0565b604082019050919050565b6000602082019050818103600083015261254b8161250f565b9050919050565b7f4552433732313a20617070726f76616c20746f2063757272656e74206f776e6560008201527f7200000000000000000000000000000000000000000000000000000000000000602082015250565b60006125ae602183611f77565b91506125b982612552565b604082019050919050565b600060208201905081810360008301526125dd816125a1565b9050919050565b7f4552433732313a20617070726f76652063616c6c6572206973206e6f74206f7760008201527f6e6572206e6f7220617070726f76656420666f7220616c6c0000000000000000602082015250565b6000612640603883611f77565b915061264b826125e4565b604082019050919050565b6000602082019050818103600083015261266f81612633565b9050919050565b7f4552433732313a207472616e736665722063616c6c6572206973206e6f74206f60008201527f776e6572206e6f7220617070726f766564000000000000000000000000000000602082015250565b60006126d2603183611f77565b91506126dd82612676565b604082019050919050565b60006020820190508181036000830152612701816126c5565b9050919050565b7f4f776e61626c653a2063616c6c6572206973206e6f7420746865206f776e6572600082015250565b600061273e602083611f77565b915061274982612708565b602082019050919050565b6000602082019050818103600083015261276d81612731565b9050919050565b7f4552433732314275726e61626c653a2063616c6c6572206973206e6f74206f7760008201527f6e6572206e6f7220617070726f76656400000000000000000000000000000000602082015250565b60006127d0603083611f77565b91506127db82612774565b604082019050919050565b600060208201905081810360008301526127ff816127c3565b9050919050565b7f4552433732313a206f776e657220717565727920666f72206e6f6e657869737460008201527f656e7420746f6b656e0000000000000000000000000000000000000000000000602082015250565b6000612862602983611f77565b915061286d82612806565b604082019050919050565b6000602082019050818103600083015261289181612855565b9050919050565b7f4552433732313a2062616c616e636520717565727920666f7220746865207a6560008201527f726f206164647265737300000000000000000000000000000000000000000000602082015250565b60006128f4602a83611f77565b91506128ff82612898565b604082019050919050565b60006020820190508181036000830152612923816128e7565b9050919050565b7f4552433732314d657461646174613a2055524920717565727920666f72206e6f60008201527f6e6578697374656e7420746f6b656e0000000000000000000000000000000000602082015250565b6000612986602f83611f77565b91506129918261292a565b604082019050919050565b600060208201905081810360008301526129b581612979565b9050919050565b600081905092915050565b60006129d282611f6c565b6129dc81856129bc565b93506129ec818560208601611f88565b80840191505092915050565b6000612a0482856129c7565b9150612a1082846129c7565b91508190509392505050565b7f4f776e61626c653a206e6577206f776e657220697320746865207a65726f206160008201527f6464726573730000000000000000000000000000000000000000000000000000602082015250565b6000612a78602683611f77565b9150612a8382612a1c565b604082019050919050565b60006020820190508181036000830152612aa781612a6b565b9050919050565b7f4552433732313a206f70657261746f7220717565727920666f72206e6f6e657860008201527f697374656e7420746f6b656e0000000000000000000000000000000000000000602082015250565b6000612b0a602c83611f77565b9150612b1582612aae565b604082019050919050565b60006020820190508181036000830152612b3981612afd565b9050919050565b7f4552433732313a207472616e736665722066726f6d20696e636f72726563742060008201527f6f776e6572000000000000000000000000000000000000000000000000000000602082015250565b6000612b9c602583611f77565b9150612ba782612b40565b604082019050919050565b60006020820190508181036000830152612bcb81612b8f565b9050919050565b7f4552433732313a207472616e7366657220746f20746865207a65726f2061646460008201527f7265737300000000000000000000000000000000000000000000000000000000602082015250565b6000612c2e602483611f77565b9150612c3982612bd2565b604082019050919050565b60006020820190508181036000830152612c5d81612c21565b9050919050565b7f4e487b7100000000000000000000000000000000000000000000000000000000600052601160045260246000fd5b6000612c9e82612027565b9150612ca983612027565b925082821015612cbc57612cbb612c64565b5b828203905092915050565b6000612cd282612027565b9150612cdd83612027565b9250827fffffffffffffffffffffffffffffffffffffffffffffffffffffffffffffffff03821115612d1257612d11612c64565b5b828201905092915050565b7f5061757361626c653a206e6f7420706175736564000000000000000000000000600082015250565b6000612d53601483611f77565b9150612d5e82612d1d565b602082019050919050565b60006020820190508181036000830152612d8281612d46565b9050919050565b7f5061757361626c653a2070617573656400000000000000000000000000000000600082015250565b6000612dbf601083611f77565b9150612dca82612d89565b602082019050919050565b60006020820190508181036000830152612dee81612db2565b9050919050565b7f4552433732313a20617070726f766520746f2063616c6c657200000000000000600082015250565b6000612e2b601983611f77565b9150612e3682612df5565b602082019050919050565b60006020820190508181036000830152612e5a81612e1e565b9050919050565b7f4552433732313a207472616e7366657220746f206e6f6e20455243373231526560008201527f63656976657220696d706c656d656e7465720000000000000000000000000000602082015250565b6000612ebd603283611f77565b9150612ec882612e61565b604082019050919050565b60006020820190508181036000830152612eec81612eb0565b9050919050565b6000612efe82612027565b91507fffffffffffffffffffffffffffffffffffffffffffffffffffffffffffffffff8203612f3057612f2f612c64565b5b600182019050919050565b7f4e487b7100000000000000000000000000000000000000000000000000000000600052601260045260246000fd5b6000612f7582612027565b9150612f8083612027565b925082612f9057612f8f612f3b565b5b828204905092915050565b6000612fa682612027565b9150612fb183612027565b925082612fc157612fc0612f3b565b5b828206905092915050565b7f4e487b7100000000000000000000000000000000000000000000000000000000600052603260045260246000fd5b600081519050919050565b600082825260208201905092915050565b600061302282612ffb565b61302c8185613006565b935061303c818560208601611f88565b61304581611fbb565b840191505092915050565b600060808201905061306560008301876120bc565b61307260208301866120bc565b61307f60408301856121d2565b81810360608301526130918184613017565b905095945050505050565b6000815190506130ab81611edd565b92915050565b6000602082840312156130c7576130c6611ea7565b5b60006130d58482850161309c565b91505092915050565b7f4552433732313a206d696e7420746f20746865207a65726f2061646472657373600082015250565b6000613114602083611f77565b915061311f826130de565b602082019050919050565b6000602082019050818103600083015261314381613107565b9050919050565b7f4552433732313a20746f6b656e20616c7265616479206d696e74656400000000600082015250565b6000613180601c83611f77565b915061318b8261314a565b602082019050919050565b600060208201905081810360008301526131af81613173565b905091905056fea26469706673582212205dc168f94b732bd6faaab04946359d0b034e73a6a7c4425f25b3f2a9cc4efcd264736f6c634300080d0033",
  "immutableReferences": {},
  "source": "// SPDX-License-Identifier: MIT\npragma solidity ^0.8.4;\n\nimport \"openzeppelin-solidity/contracts/token/ERC721/ERC721.sol\";\nimport \"openzeppelin-solidity/contracts/security/Pausable.sol\";\nimport \"openzeppelin-solidity/contracts/access/Ownable.sol\";\nimport \"openzeppelin-solidity/contracts/token/ERC721/extensions/ERC721Burnable.sol\";\nimport \"openzeppelin-solidity/contracts/utils/Counters.sol\";\n\ncontract MyToken is ERC721, Pausable, Ownable, ERC721Burnable {\n    using Counters for Counters.Counter;\n\n    Counters.Counter private _tokenIdCounter;\n\n    constructor() ERC721(\"MyToken\", \"MTK\") {}\n\n    function pause() public onlyOwner {\n        _pause();\n    }\n\n    function unpause() public onlyOwner {\n        _unpause();\n    }\n\n    function safeMint(address to) public onlyOwner {\n        uint256 tokenId = _tokenIdCounter.current();\n        _tokenIdCounter.increment();\n        _safeMint(to, tokenId);\n    }\n\n    function _beforeTokenTransfer(address from, address to, uint256 tokenId)\n        internal\n        whenNotPaused\n        override\n    {\n        super._beforeTokenTransfer(from, to, tokenId);\n    }\n}\n",
  "sourcePath": "/home/ubox19/Desktop/assignments/ERC721_Assign/contracts/ERC721_contract.sol",
  "compiler": {
    "name": "solc",
    "version": "0.8.13+commit.abaa5c0e.Emscripten.clang"
  },
  "schemaVersion": "3.4.7",
  "updatedAt": "2022-04-20T09:50:02.722Z",
  "devdoc": {
    "kind": "dev",
    "methods": {
      "approve(address,uint256)": {
        "details": "See {IERC721-approve}."
      },
      "balanceOf(address)": {
        "details": "See {IERC721-balanceOf}."
      },
      "burn(uint256)": {
        "details": "Burns `tokenId`. See {ERC721-_burn}. Requirements: - The caller must own `tokenId` or be an approved operator."
      },
      "getApproved(uint256)": {
        "details": "See {IERC721-getApproved}."
      },
      "isApprovedForAll(address,address)": {
        "details": "See {IERC721-isApprovedForAll}."
      },
      "name()": {
        "details": "See {IERC721Metadata-name}."
      },
      "owner()": {
        "details": "Returns the address of the current owner."
      },
      "ownerOf(uint256)": {
        "details": "See {IERC721-ownerOf}."
      },
      "paused()": {
        "details": "Returns true if the contract is paused, and false otherwise."
      },
      "renounceOwnership()": {
        "details": "Leaves the contract without owner. It will not be possible to call `onlyOwner` functions anymore. Can only be called by the current owner. NOTE: Renouncing ownership will leave the contract without an owner, thereby removing any functionality that is only available to the owner."
      },
      "safeTransferFrom(address,address,uint256)": {
        "details": "See {IERC721-safeTransferFrom}."
      },
      "safeTransferFrom(address,address,uint256,bytes)": {
        "details": "See {IERC721-safeTransferFrom}."
      },
      "setApprovalForAll(address,bool)": {
        "details": "See {IERC721-setApprovalForAll}."
      },
      "supportsInterface(bytes4)": {
        "details": "See {IERC165-supportsInterface}."
      },
      "symbol()": {
        "details": "See {IERC721Metadata-symbol}."
      },
      "tokenURI(uint256)": {
        "details": "See {IERC721Metadata-tokenURI}."
      },
      "transferFrom(address,address,uint256)": {
        "details": "See {IERC721-transferFrom}."
      },
      "transferOwnership(address)": {
        "details": "Transfers ownership of the contract to a new account (`newOwner`). Can only be called by the current owner."
      }
    },
    "version": 1
  },
  "userdoc": {
    "kind": "user",
    "methods": {},
    "version": 1
  }
}